{
  "_format": "hh-sol-artifact-1",
  "contractName": "OptimizedFHEGame",
  "sourceName": "contracts/OptimizedFHEGame.sol",
  "abi": [
    {
      "inputs": [
        {
          "internalType": "address",
          "name": "_decryptionOracle",
          "type": "address"
        }
      ],
      "stateMutability": "nonpayable",
      "type": "constructor"
    },
    {
      "inputs": [],
      "name": "HandlesAlreadySavedForRequestID",
      "type": "error"
    },
    {
      "inputs": [],
      "name": "InvalidKMSSignatures",
      "type": "error"
    },
    {
      "inputs": [],
      "name": "NoHandleFoundForRequestID",
      "type": "error"
    },
    {
      "inputs": [],
      "name": "UnsupportedHandleType",
      "type": "error"
    },
    {
      "anonymous": false,
      "inputs": [
        {
          "indexed": true,
          "internalType": "address",
          "name": "oldAdmin",
          "type": "address"
        },
        {
          "indexed": true,
          "internalType": "address",
          "name": "newAdmin",
          "type": "address"
        }
      ],
      "name": "AdminTransferred",
      "type": "event"
    },
    {
      "anonymous": false,
      "inputs": [
        {
          "indexed": true,
          "internalType": "uint256",
          "name": "requestID",
          "type": "uint256"
        }
      ],
      "name": "DecryptionFulfilled",
      "type": "event"
    },
    {
      "anonymous": false,
      "inputs": [
        {
          "indexed": true,
          "internalType": "uint256",
          "name": "gameId",
          "type": "uint256"
        },
        {
          "indexed": true,
          "internalType": "uint256",
          "name": "requestId",
          "type": "uint256"
        }
      ],
      "name": "DecryptionRequested",
      "type": "event"
    },
    {
      "anonymous": false,
      "inputs": [
        {
          "indexed": true,
          "internalType": "uint256",
          "name": "gameId",
          "type": "uint256"
        },
        {
          "indexed": true,
          "internalType": "address",
          "name": "player2",
          "type": "address"
        },
        {
          "indexed": false,
          "internalType": "uint256",
          "name": "betAmount",
          "type": "uint256"
        }
      ],
      "name": "GameChallenged",
      "type": "event"
    },
    {
      "anonymous": false,
      "inputs": [
        {
          "indexed": true,
          "internalType": "uint256",
          "name": "gameId",
          "type": "uint256"
        },
        {
          "indexed": true,
          "internalType": "address",
          "name": "player1",
          "type": "address"
        },
        {
          "indexed": false,
          "internalType": "uint256",
          "name": "betAmount",
          "type": "uint256"
        }
      ],
      "name": "GameCreated",
      "type": "event"
    },
    {
      "anonymous": false,
      "inputs": [
        {
          "indexed": true,
          "internalType": "uint256",
          "name": "gameId",
          "type": "uint256"
        },
        {
          "indexed": true,
          "internalType": "address",
          "name": "winner",
          "type": "address"
        },
        {
          "indexed": false,
          "internalType": "uint256",
          "name": "prize",
          "type": "uint256"
        }
      ],
      "name": "GameRevealed",
      "type": "event"
    },
    {
      "anonymous": false,
      "inputs": [
        {
          "indexed": true,
          "internalType": "address",
          "name": "oldOracle",
          "type": "address"
        },
        {
          "indexed": true,
          "internalType": "address",
          "name": "newOracle",
          "type": "address"
        }
      ],
      "name": "OracleUpdated",
      "type": "event"
    },
    {
      "anonymous": false,
      "inputs": [
        {
          "indexed": true,
          "internalType": "uint256",
          "name": "gameId",
          "type": "uint256"
        },
        {
          "indexed": true,
          "internalType": "address",
          "name": "winner",
          "type": "address"
        },
        {
          "indexed": false,
          "internalType": "uint256",
          "name": "amount",
          "type": "uint256"
        }
      ],
      "name": "PrizeAvailable",
      "type": "event"
    },
    {
      "anonymous": false,
      "inputs": [
        {
          "indexed": true,
          "internalType": "uint256",
          "name": "gameId",
          "type": "uint256"
        },
        {
          "indexed": true,
          "internalType": "address",
          "name": "winner",
          "type": "address"
        },
        {
          "indexed": false,
          "internalType": "uint256",
          "name": "amount",
          "type": "uint256"
        }
      ],
      "name": "PrizeClaimed",
      "type": "event"
    },
    {
      "anonymous": false,
      "inputs": [
        {
          "indexed": true,
          "internalType": "uint256",
          "name": "gameId",
          "type": "uint256"
        },
        {
          "indexed": true,
          "internalType": "address",
          "name": "player",
          "type": "address"
        }
      ],
      "name": "RefundConsented",
      "type": "event"
    },
    {
      "anonymous": false,
      "inputs": [
        {
          "indexed": true,
          "internalType": "uint256",
          "name": "gameId",
          "type": "uint256"
        },
        {
          "indexed": false,
          "internalType": "uint256",
          "name": "amount",
          "type": "uint256"
        }
      ],
      "name": "RefundExecuted",
      "type": "event"
    },
    {
      "inputs": [],
      "name": "admin",
      "outputs": [
        {
          "internalType": "address",
          "name": "",
          "type": "address"
        }
      ],
      "stateMutability": "view",
      "type": "function"
    },
    {
      "inputs": [
        {
          "internalType": "uint256",
          "name": "gameId",
          "type": "uint256"
        },
        {
          "internalType": "externalEuint32",
          "name": "_encryptedGuess",
          "type": "bytes32"
        },
        {
          "internalType": "bytes",
          "name": "inputProof",
          "type": "bytes"
        }
      ],
      "name": "challengeGame",
      "outputs": [],
      "stateMutability": "payable",
      "type": "function"
    },
    {
      "inputs": [
        {
          "internalType": "uint256",
          "name": "gameId",
          "type": "uint256"
        }
      ],
      "name": "claimPrize",
      "outputs": [],
      "stateMutability": "nonpayable",
      "type": "function"
    },
    {
      "inputs": [
        {
          "internalType": "uint256",
          "name": "gameId",
          "type": "uint256"
        }
      ],
      "name": "concludeGame",
      "outputs": [],
      "stateMutability": "nonpayable",
      "type": "function"
    },
    {
      "inputs": [
        {
          "internalType": "uint256",
          "name": "gameId",
          "type": "uint256"
        }
      ],
      "name": "consentRefund",
      "outputs": [],
      "stateMutability": "nonpayable",
      "type": "function"
    },
    {
      "inputs": [
        {
          "internalType": "externalEuint32",
          "name": "_encryptedChoice",
          "type": "bytes32"
        },
        {
          "internalType": "bytes",
          "name": "inputProof",
          "type": "bytes"
        }
      ],
      "name": "createGame",
      "outputs": [],
      "stateMutability": "payable",
      "type": "function"
    },
    {
      "inputs": [
        {
          "internalType": "uint256",
          "name": "requestId",
          "type": "uint256"
        },
        {
          "internalType": "bool",
          "name": "decryptedInput",
          "type": "bool"
        },
        {
          "internalType": "bytes[]",
          "name": "signatures",
          "type": "bytes[]"
        }
      ],
      "name": "decryptionCallback",
      "outputs": [],
      "stateMutability": "nonpayable",
      "type": "function"
    },
    {
      "inputs": [],
      "name": "decryptionOracle",
      "outputs": [
        {
          "internalType": "address",
          "name": "",
          "type": "address"
        }
      ],
      "stateMutability": "view",
      "type": "function"
    },
    {
      "inputs": [
        {
          "internalType": "uint256",
          "name": "gameId",
          "type": "uint256"
        }
      ],
      "name": "didIWin",
      "outputs": [
        {
          "internalType": "bool",
          "name": "",
          "type": "bool"
        }
      ],
      "stateMutability": "view",
      "type": "function"
    },
    {
      "inputs": [],
      "name": "gameCounter",
      "outputs": [
        {
          "internalType": "uint256",
          "name": "",
          "type": "uint256"
        }
      ],
      "stateMutability": "view",
      "type": "function"
    },
    {
      "inputs": [
        {
          "internalType": "uint256",
          "name": "",
          "type": "uint256"
        }
      ],
      "name": "games",
      "outputs": [
        {
          "internalType": "uint256",
          "name": "gameId",
          "type": "uint256"
        },
        {
          "internalType": "address",
          "name": "player1",
          "type": "address"
        },
        {
          "internalType": "address",
          "name": "player2",
          "type": "address"
        },
        {
          "internalType": "uint256",
          "name": "betAmount",
          "type": "uint256"
        },
        {
          "internalType": "enum OptimizedFHEGame.GameStatus",
          "name": "status",
          "type": "uint8"
        },
        {
          "internalType": "euint32",
          "name": "player1Choice",
          "type": "bytes32"
        },
        {
          "internalType": "euint32",
          "name": "player2Guess",
          "type": "bytes32"
        },
        {
          "internalType": "address",
          "name": "winner",
          "type": "address"
        },
        {
          "internalType": "uint256",
          "name": "createdAt",
          "type": "uint256"
        },
        {
          "internalType": "bool",
          "name": "player1ConsentRefund",
          "type": "bool"
        },
        {
          "internalType": "bool",
          "name": "player2ConsentRefund",
          "type": "bool"
        }
      ],
      "stateMutability": "view",
      "type": "function"
    },
    {
      "inputs": [
        {
          "internalType": "uint256",
          "name": "gameId",
          "type": "uint256"
        }
      ],
      "name": "getGame",
      "outputs": [
        {
          "internalType": "uint256",
          "name": "id",
          "type": "uint256"
        },
        {
          "internalType": "address",
          "name": "player1",
          "type": "address"
        },
        {
          "internalType": "address",
          "name": "player2",
          "type": "address"
        },
        {
          "internalType": "uint256",
          "name": "betAmount",
          "type": "uint256"
        },
        {
          "internalType": "enum OptimizedFHEGame.GameStatus",
          "name": "status",
          "type": "uint8"
        },
        {
          "internalType": "address",
          "name": "winner",
          "type": "address"
        },
        {
          "internalType": "uint256",
          "name": "createdAt",
          "type": "uint256"
        }
      ],
      "stateMutability": "view",
      "type": "function"
    },
    {
      "inputs": [],
      "name": "getGameCount",
      "outputs": [
        {
          "internalType": "uint256",
          "name": "",
          "type": "uint256"
        }
      ],
      "stateMutability": "view",
      "type": "function"
    },
    {
      "inputs": [
        {
          "internalType": "uint256",
          "name": "gameId",
          "type": "uint256"
        },
        {
          "internalType": "address",
          "name": "player",
          "type": "address"
        }
      ],
      "name": "getGameResult",
      "outputs": [
        {
          "internalType": "string",
          "name": "",
          "type": "string"
        }
      ],
      "stateMutability": "view",
      "type": "function"
    },
    {
      "inputs": [
        {
          "internalType": "uint256",
          "name": "",
          "type": "uint256"
        }
      ],
      "name": "prizePool",
      "outputs": [
        {
          "internalType": "uint256",
          "name": "",
          "type": "uint256"
        }
      ],
      "stateMutability": "view",
      "type": "function"
    },
    {
      "inputs": [
        {
          "internalType": "address",
          "name": "_oracle",
          "type": "address"
        }
      ],
      "name": "setDecryptionOracle",
      "outputs": [],
      "stateMutability": "nonpayable",
      "type": "function"
    },
    {
      "inputs": [
        {
          "internalType": "address",
          "name": "_newAdmin",
          "type": "address"
        }
      ],
      "name": "transferAdmin",
      "outputs": [],
      "stateMutability": "nonpayable",
      "type": "function"
    }
  ],
  "bytecode": "0x608060405234801562000010575f80fd5b5060405162002883380380620028838339810160408190526200003391620002d6565b620001af620000d3604080516080810182525f808252602082018190529181018290526060810191909152506040805160808101825273687820221192c5b662b25367f70076a37bc79b6c815273848b0066793bcc60346da1f49049357399b8d5956020820152731364cbbf2cdf5032c47d8226a6f6fbd2afcdacac9181019190915273bc91f3dad1a5f19f8390c400196e58073b6a0bc4606082015290565b80517fed8d60e34876f751cc8b014c560745351147d9de11b9347c854e881b128ea60080546001600160a01b03199081166001600160a01b039384161790915560208301517fed8d60e34876f751cc8b014c560745351147d9de11b9347c854e881b128ea6018054831691841691909117905560408301517fed8d60e34876f751cc8b014c560745351147d9de11b9347c854e881b128ea6028054831691841691909117905560608301517fed8d60e34876f751cc8b014c560745351147d9de11b9347c854e881b128ea6038054909216921691909117905550565b7f5ea69329017273582817d320489fbd94f775580e90c092699ca6f3d12fdf7d0080546001600160a01b03191673a02cda4ca3a71d7c46997716f4283aa851c2881217905560038054336001600160a01b03199182168117909255600480549091166001600160a01b0384161790556040515f907ff8ccb027dfcd135e000e9d45e6cc2d662578a8825d4c45b5e32e0adf67e79ec6908290a36040516001600160a01b038216905f907f078c3b417dadf69374a59793b829c52001247130433427049317bde56607b1b7908290a36001600160a01b03811615620002cf57620002cf817f5ea69329017273582817d320489fbd94f775580e90c092699ca6f3d12fdf7d0080546001600160a01b0319166001600160a01b03831617905550565b5062000305565b5f60208284031215620002e7575f80fd5b81516001600160a01b0381168114620002fe575f80fd5b9392505050565b61257080620003135f395ff3fe608060405260043610610109575f3560e01c80638e797db9116100a1578063d636e6fa11610071578063e1bc5a1811610057578063e1bc5a18146103c6578063e87c0ee6146103f2578063f851a44014610405575f80fd5b8063d636e6fa1461037c578063d7098154146103a7575f80fd5b80638e797db914610289578063a2f77bcc146102a8578063a7b9266514610326578063b3fa6dec14610345575f80fd5b806342b7078e116100dc57806342b7078e1461021957806375829def14610238578063855db0e0146102575780638b65710a14610276575f80fd5b8063117a5b901461010d5780631d7a0964146101b35780632e0be39a146101c857806335bebc8f146101ea575b5f80fd5b348015610118575f80fd5b50610193610127366004611f5d565b600160208190525f918252604090912080549181015460028201546003830154600484015460058501546006860154600787015460088801546009909801546001600160a01b039788169896881697959660ff958616969495939490921692808216916101009004168b565b6040516101aa9b9a99989796959493929190611f9c565b60405180910390f35b6101c66101c1366004612054565b610424565b005b3480156101d3575f80fd5b506101dc5f5481565b6040519081526020016101aa565b3480156101f5575f80fd5b50610209610204366004611f5d565b610557565b60405190151581526020016101aa565b348015610224575f80fd5b506101c66102333660046120b7565b610604565b348015610243575f80fd5b506101c66102523660046120b7565b6106b7565b348015610262575f80fd5b506101c6610271366004611f5d565b6107a5565b6101c66102843660046120d0565b61085e565b348015610294575f80fd5b506101c66102a3366004612171565b610a31565b3480156102b3575f80fd5b506103136102c2366004611f5d565b5f908152600160208190526040909120805491810154600282015460038301546004840154600785015460089095015495966001600160a01b039485169693851695929460ff909216939190921691565b6040516101aa9796959493929190612299565b348015610331575f80fd5b506101c6610340366004611f5d565b610cbd565b348015610350575f80fd5b50600454610364906001600160a01b031681565b6040516001600160a01b0390911681526020016101aa565b348015610387575f80fd5b506101dc610396366004611f5d565b60026020525f908152604090205481565b3480156103b2575f80fd5b506101c66103c1366004611f5d565b610ed6565b3480156103d1575f80fd5b506103e56103e03660046122e3565b6110f0565b6040516101aa9190612350565b3480156103fd575f80fd5b505f546101dc565b348015610410575f80fd5b50600354610364906001600160a01b031681565b5f34116104785760405162461bcd60e51b815260206004820152600f60248201527f426574206d757374206265203e2030000000000000000000000000000000000060448201526064015b60405180910390fd5b5f8054818061048683612376565b909155505f8181526001602081815260409283902084815591820180546001600160a01b0319163317905534600383015560048201805460ff191690554260088301558251601f87018290048202810182019093528583529293509161050791879187908790819084018382808284375f920191909152506111c492505050565b60058201819055610517906111d8565b50604051348152339083907f7dfb67e9ff596fca4da65c7eedb128cd1aac553af54b3c0cb733625a2480d8bd906020015b60405180910390a35050505050565b5f8181526001602052604081206002600482015460ff16600381111561057f5761057f611f74565b14806105a357506003600482015460ff1660038111156105a1576105a1611f74565b145b6105ef5760405162461bcd60e51b815260206004820152601060248201527f526573756c74206e6f7420726561647900000000000000000000000000000000604482015260640161046f565b600701546001600160a01b0316331492915050565b6003546001600160a01b0316331461064b5760405162461bcd60e51b815260206004820152600a60248201526927b7363c9030b236b4b760b11b604482015260640161046f565b600480546001600160a01b038381166001600160a01b031983161790925516610673826111e7565b816001600160a01b0316816001600160a01b03167f078c3b417dadf69374a59793b829c52001247130433427049317bde56607b1b760405160405180910390a35050565b6003546001600160a01b031633146106fe5760405162461bcd60e51b815260206004820152600a60248201526927b7363c9030b236b4b760b11b604482015260640161046f565b6001600160a01b0381166107545760405162461bcd60e51b815260206004820152600960248201527f5a65726f20616464720000000000000000000000000000000000000000000000604482015260640161046f565b600380546001600160a01b038381166001600160a01b0319831681179093556040519116919082907ff8ccb027dfcd135e000e9d45e6cc2d662578a8825d4c45b5e32e0adf67e79ec6905f90a35050565b5f81815260016020819052604090912090600482015460ff1660038111156107cf576107cf611f74565b146108085760405162461bcd60e51b81526020600482015260096024820152684e6f7420726561647960b81b604482015260640161046f565b6004546001600160a01b03166108515760405162461bcd60e51b815260206004820152600e60248201526d13dc9858db19481b9bdd081cd95d60921b604482015260640161046f565b61085a82611227565b5050565b5f84815260016020526040812090600482015460ff16600381111561088557610885611f74565b146108d25760405162461bcd60e51b815260206004820152600d60248201527f4e6f7420617661696c61626c6500000000000000000000000000000000000000604482015260640161046f565b60018101546001600160a01b0316330361092e5760405162461bcd60e51b815260206004820152601560248201527f43616e6e6f74206368616c6c656e67652073656c660000000000000000000000604482015260640161046f565b806003015434146109815760405162461bcd60e51b815260206004820152600c60248201527f426574206d69736d617463680000000000000000000000000000000000000000604482015260640161046f565b6002810180546001600160a01b03191633179055604080516020601f85018190048102820181019092528381526109d49186919086908690819084018382808284375f920191909152506111c492505050565b600682018190556109e4906111d8565b5060048101805460ff191660011790556109fd85611227565b604051348152339086907f91443e5894c2b61eec6aac338d29fc68945be941dee5e8890c3b75c1438f245a90602001610548565b6004546001600160a01b03163314610a8b5760405162461bcd60e51b815260206004820152600b60248201527f4f6e6c79206f7261636c65000000000000000000000000000000000000000000604482015260640161046f565b610a9583826113e8565b5f8381526005602090815260408083205480845260018352818420600790935292205460ff16610b075760405162461bcd60e51b815260206004820152601560248201527f4e6f2064656372797074696f6e2070656e64696e670000000000000000000000604482015260640161046f565b6001600482015460ff166003811115610b2257610b22611f74565b14610b6f5760405162461bcd60e51b815260206004820152600e60248201527f4e6f74206368616c6c656e676564000000000000000000000000000000000000604482015260640161046f565b600381015484905f90610b8390600261238e565b90508115610bb65760028301546007840180546001600160a01b0319166001600160a01b03909216919091179055610bdd565b60018301546007840180546001600160a01b0319166001600160a01b039092169190911790555b5f84815260026020818152604080842085905560048701805460ff199081169094179055600780835281852080549094169093558a84526005825280842084905587845260068252808420939093559085015491518381526001600160a01b039092169186917f66e6fb9a279caa25a794037056cf093dfdbd1819cb8c3924a83f3b0bc6e66fe8910160405180910390a360078301546040518281526001600160a01b039091169085907feb7b570059c850bef5bd2f12605d0e3b97e7908e6cc5affd70a7a0aeb51cec589060200160405180910390a350505050505050565b5f81815260016020819052604090912090600482015460ff166003811115610ce757610ce7611f74565b14610d235760405162461bcd60e51b815260206004820152600c60248201526b4e6f7420656c696769626c6560a01b604482015260640161046f565b60018101546001600160a01b0316331480610d4a575060028101546001600160a01b031633145b610d965760405162461bcd60e51b815260206004820152600c60248201527f4f6e6c7920706c61796572730000000000000000000000000000000000000000604482015260640161046f565b60018101546001600160a01b03163303610e1357600981015460ff1615610dff5760405162461bcd60e51b815260206004820152601160248201527f416c726561647920636f6e73656e746564000000000000000000000000000000604482015260640161046f565b60098101805460ff19166001179055610e7f565b6009810154610100900460ff1615610e6d5760405162461bcd60e51b815260206004820152601160248201527f416c726561647920636f6e73656e746564000000000000000000000000000000604482015260640161046f565b60098101805461ff0019166101001790555b604051339083907f44741b84e5faee6221ef0b49278584ca0fe86bf8f9047799cd54d26388ea6745905f90a3600981015460ff168015610ec857506009810154610100900460ff165b1561085a5761085a8261144f565b5f8181526001602052604090206002600482015460ff166003811115610efe57610efe611f74565b14610f4b5760405162461bcd60e51b815260206004820152600c60248201527f4e6f742072657665616c65640000000000000000000000000000000000000000604482015260640161046f565b60078101546001600160a01b03163314610fa75760405162461bcd60e51b815260206004820152600a60248201527f4e6f742077696e6e657200000000000000000000000000000000000000000000604482015260640161046f565b5f82815260026020526040902054806110025760405162461bcd60e51b815260206004820152600860248201527f4e6f207072697a65000000000000000000000000000000000000000000000000604482015260640161046f565b5f8381526002602052604080822082905560048401805460ff1916600317905551339083908381818185875af1925050503d805f811461105d576040519150601f19603f3d011682016040523d82523d5f602084013e611062565b606091505b50509050806110b35760405162461bcd60e51b815260206004820152600f60248201527f5472616e73666572206661696c65640000000000000000000000000000000000604482015260640161046f565b604051828152339085907f4aa95f981a8337cb337de335b965507da0879c3b49f799d20058e913f5ad2c269060200160405180910390a350505050565b5f828152600160205260408120606091600482015460ff16600381111561111957611119611f74565b148061113d57506001600482015460ff16600381111561113b5761113b611f74565b145b1561116757505060408051808201909152600781526650656e64696e6760c81b60208201526111be565b60078101546001600160a01b03908116908416036111a05750506040805180820190915260038152622bb7b760e91b60208201526111be565b5050604080518082019091526004815263131bdcdd60e21b60208201525b92915050565b5f6111d1838360046116ff565b9392505050565b5f6111e3823061181f565b5090565b7f5ea69329017273582817d320489fbd94f775580e90c092699ca6f3d12fdf7d0080546001600160a01b0319166001600160a01b03831617905550565b50565b5f81815260016020819052604090912090600482015460ff16600381111561125157611251611f74565b1461128a5760405162461bcd60e51b81526020600482015260096024820152684e6f7420726561647960b81b604482015260640161046f565b5f8281526007602052604090205460ff16156112d25760405162461bcd60e51b815260206004820152600760248201526650656e64696e6760c81b604482015260640161046f565b6004546001600160a01b031661131b5760405162461bcd60e51b815260206004820152600e60248201526d13dc9858db19481b9bdd081cd95d60921b604482015260640161046f565b5f61132e826006015483600501546118a8565b6040805160018082528183019092529192505f91906020808301908036833701905050905081815f81518110611366576113666123a5565b60209081029190910101525f61138382638e797db960e01b6118d6565b5f818152600560209081526040808320899055888352600682528083208490556007909152808220805460ff1916600117905551919250829187917f81bca54e6c48c44ec959a5581796be73005cbde51156a29bae607f52e9baa16c91a35050505050565b5f6113f2836118e2565b90505f6113ff82846119b3565b90508061141f5760405163cf6c44e960e01b815260040160405180910390fd5b60405184907f1af0453083661051f6e56e5c070792320652e612154bf9af8637bb1e7655b99d905f90a250505050565b5f818152600160205260409020600981015460ff16801561147957506009810154610100900460ff165b6114c55760405162461bcd60e51b815260206004820152601160248201527f426f7468206d75737420636f6e73656e74000000000000000000000000000000604482015260640161046f565b6001600482015460ff1660038111156114e0576114e0611f74565b1461151c5760405162461bcd60e51b815260206004820152600c60248201526b4e6f7420656c696769626c6560a01b604482015260640161046f565b60038101545f838152600760209081526040808320805460ff1916905560069091529020548015611566575f81815260056020908152604080832083905586835260069091528120555b60048301805460ff1916600317905560018301546040515f916001600160a01b03169084908381818185875af1925050503d805f81146115c1576040519150601f19603f3d011682016040523d82523d5f602084013e6115c6565b606091505b50509050806116175760405162461bcd60e51b815260206004820152601060248201527f526566756e64207031206661696c656400000000000000000000000000000000604482015260640161046f565b60028401546040515f916001600160a01b03169085908381818185875af1925050503d805f8114611663576040519150601f19603f3d011682016040523d82523d5f602084013e611668565b606091505b50509050806116b95760405162461bcd60e51b815260206004820152601060248201527f526566756e64207032206661696c656400000000000000000000000000000000604482015260640161046f565b857f4163f8923e659695efbcad9ead25ab6e141179fbbee08a0c55959ed0db7fdae36116e686600261238e565b60405190815260200160405180910390a2505050505050565b7fed8d60e34876f751cc8b014c560745351147d9de11b9347c854e881b128ea6015460405163196d0b9b60e01b81525f917fed8d60e34876f751cc8b014c560745351147d9de11b9347c854e881b128ea600916001600160a01b039091169063196d0b9b906117789088903390899089906004016123c9565b6020604051808303815f875af1158015611794573d5f803e3d5ffd5b505050506040513d601f19601f820116820180604052508101906117b89190612408565b8154604051630f8e573b60e21b8152600481018390523360248201529193506001600160a01b031690633e395cec906044015f604051808303815f87803b158015611801575f80fd5b505af1158015611813573d5f803e3d5ffd5b50505050509392505050565b5f7fed8d60e34876f751cc8b014c560745351147d9de11b9347c854e881b128ea6008054604051635ca4b5b160e11b8152600481018690526001600160a01b03858116602483015292935091169063b9496b62906044015f604051808303815f87803b15801561188d575f80fd5b505af115801561189f573d5f803e3d5ffd5b50505050505050565b5f826118ba576118b75f611ace565b92505b816118cb576118c85f611ace565b91505b6111d183835f611ae0565b5f6111d183835f611bc0565b5f8181527f5ea69329017273582817d320489fbd94f775580e90c092699ca6f3d12fdf7d0260205260408120546060917f5ea69329017273582817d320489fbd94f775580e90c092699ca6f3d12fdf7d009190036119535760405163d66ca67560e01b815260040160405180910390fd5b5f838152600282016020908152604091829020805483518184028101840190945280845290918301828280156119a657602002820191905f5260205f20905b815481526020019060010190808311611992575b5050505050915050919050565b5f6024816119c085611d0c565b90505f8167ffffffffffffffff8111156119dc576119dc61212c565b6040519080825280601f01601f191660200182016040528015611a06576020820181803683370190505b509050818360208301377fed8d60e34876f751cc8b014c560745351147d9de11b9347c854e881b128ea60254604051632c027b1360e21b81527fed8d60e34876f751cc8b014c560745351147d9de11b9347c854e881b128ea600916001600160a01b03169063b009ec4c90611a83908a9086908b90600401612459565b6020604051808303815f875af1158015611a9f573d5f803e3d5ffd5b505050506040513d601f19601f82011682018060405250810190611ac391906124de565b979650505050505050565b5f6111be8263ffffffff166004611dc1565b5f808215611af35750600160f81b611af6565b505f5b5f7fed8d60e34876f751cc8b014c560745351147d9de11b9347c854e881b128ea600600181015460405163f77f3f1d60e01b815260048101899052602481018890527fff00000000000000000000000000000000000000000000000000000000000000851660448201529192506001600160a01b03169063f77f3f1d906064016020604051808303815f875af1158015611b92573d5f803e3d5ffd5b505050506040513d601f19601f82011682018060405250810190611bb69190612408565b9695505050505050565b7f5ea69329017273582817d320489fbd94f775580e90c092699ca6f3d12fdf7d01547fed8d60e34876f751cc8b014c560745351147d9de11b9347c854e881b128ea6008054604051637d6e912360e11b81527f5ea69329017273582817d320489fbd94f775580e90c092699ca6f3d12fdf7d0092916001600160a01b03169063fadd224690611c539089906004016124f9565b5f604051808303815f87803b158015611c6a575f80fd5b505af1158015611c7c573d5f803e3d5ffd5b50508354604051633263b83b60e01b81526001600160a01b039091169250633263b83b91508690611cb59087908b908b9060040161250b565b5f604051808303818588803b158015611ccc575f80fd5b505af1158015611cde573d5f803e3d5ffd5b5050505050611ced8387611e76565b600182018054905f611cfe83612376565b919050555050509392505050565b80515f9081805b82811015611dad575f858281518110611d2e57611d2e6123a5565b6020026020010151601e60208110611d4857611d486123a5565b1a6053811115611d5a57611d5a611f74565b90506009816053811115611d7057611d70611f74565b60ff161015611d8b57611d8460208461253c565b9250611da4565b60405163ce54a8d160e01b815260040160405180910390fd5b50600101611d13565b50611db960208261253c565b949350505050565b7fed8d60e34876f751cc8b014c560745351147d9de11b9347c854e881b128ea60154604051639cd07acb60e01b81525f917fed8d60e34876f751cc8b014c560745351147d9de11b9347c854e881b128ea600916001600160a01b0390911690639cd07acb90611e36908790879060040161254f565b6020604051808303815f875af1158015611e52573d5f803e3d5ffd5b505050506040513d601f19601f82011682018060405250810190611db99190612408565b5f8281527f5ea69329017273582817d320489fbd94f775580e90c092699ca6f3d12fdf7d0260205260409020547f5ea69329017273582817d320489fbd94f775580e90c092699ca6f3d12fdf7d009015611ee357604051633f06d22b60e01b815260040160405180910390fd5b5f83815260028201602090815260409091208351611f0392850190611f09565b50505050565b828054828255905f5260205f20908101928215611f42579160200282015b82811115611f42578251825591602001919060010190611f27565b506111e39291505b808211156111e3575f8155600101611f4a565b5f60208284031215611f6d575f80fd5b5035919050565b634e487b7160e01b5f52602160045260245ffd5b60048110611f9857611f98611f74565b9052565b8b81526001600160a01b038b811660208301528a81166040830152606082018a9052610160820190611fd1608084018b611f88565b8860a08401528760c084015280871660e084015250846101008301528315156101208301528215156101408301529c9b505050505050505050505050565b5f8083601f84011261201f575f80fd5b50813567ffffffffffffffff811115612036575f80fd5b60208301915083602082850101111561204d575f80fd5b9250929050565b5f805f60408486031215612066575f80fd5b83359250602084013567ffffffffffffffff811115612083575f80fd5b61208f8682870161200f565b9497909650939450505050565b80356001600160a01b03811681146120b2575f80fd5b919050565b5f602082840312156120c7575f80fd5b6111d18261209c565b5f805f80606085870312156120e3575f80fd5b8435935060208501359250604085013567ffffffffffffffff811115612107575f80fd5b6121138782880161200f565b95989497509550505050565b8015158114611224575f80fd5b634e487b7160e01b5f52604160045260245ffd5b604051601f8201601f1916810167ffffffffffffffff811182821017156121695761216961212c565b604052919050565b5f805f60608486031215612183575f80fd5b833592506020808501356121968161211f565b925060408581013567ffffffffffffffff808211156121b3575f80fd5b818801915088601f8301126121c6575f80fd5b8135818111156121d8576121d861212c565b8060051b6121e7868201612140565b918252838101860191868101908c841115612200575f80fd5b87860192505b838310156122875782358581111561221c575f80fd5b8601603f81018e1361222c575f80fd5b88810135868111156122405761224061212c565b612252601f8201601f19168b01612140565b8181528f8a838501011115612265575f80fd5b818a84018c8301375f9181018b01919091528352509187019190870190612206565b80985050505050505050509250925092565b8781526001600160a01b03878116602083015286811660408301526060820186905260e08201906122cd6080840187611f88565b9390931660a082015260c0015295945050505050565b5f80604083850312156122f4575f80fd5b823591506123046020840161209c565b90509250929050565b5f81518084525f5b8181101561233157602081850181015186830182015201612315565b505f602082860101526020601f19601f83011685010191505092915050565b602081525f6111d1602083018461230d565b634e487b7160e01b5f52601160045260245ffd5b5f6001820161238757612387612362565b5060010190565b80820281158282048414176111be576111be612362565b634e487b7160e01b5f52603260045260245ffd5b60548110611f9857611f98611f74565b8481526001600160a01b0384166020820152608060408201525f6123f0608083018561230d565b90506123ff60608301846123b9565b95945050505050565b5f60208284031215612418575f80fd5b5051919050565b5f815180845260208085019450602084015f5b8381101561244e57815187529582019590820190600101612432565b509495945050505050565b606081525f61246b606083018661241f565b60208382038185015261247e828761230d565b915083820360408501528185518084528284019150828160051b8501018388015f5b838110156124ce57601f198784030185526124bc83835161230d565b948601949250908501906001016124a0565b50909a9950505050505050505050565b5f602082840312156124ee575f80fd5b81516111d18161211f565b602081525f6111d1602083018461241f565b838152606060208201525f612523606083018561241f565b905063ffffffff60e01b83166040830152949350505050565b808201808211156111be576111be612362565b828152604081016111d160208301846123b956fea164736f6c6343000818000a",
  "linkReferences": {},
  "deployedLinkReferences": {}
}