{
  "_format": "hh-sol-artifact-1",
  "contractName": "PlayerVsPlayerGuessingGame",
  "sourceName": "contracts/UniqueNumberGameFactory.sol",
  "abi": [
    {
      "anonymous": false,
      "inputs": [
        {
          "indexed": true,
          "internalType": "uint256",
          "name": "requestId",
          "type": "uint256"
        },
        {
          "indexed": true,
          "internalType": "uint256",
          "name": "gameId",
          "type": "uint256"
        }
      ],
      "name": "CallbackAttempted",
      "type": "event"
    },
    {
      "anonymous": false,
      "inputs": [
        {
          "indexed": true,
          "internalType": "uint256",
          "name": "requestId",
          "type": "uint256"
        },
        {
          "indexed": true,
          "internalType": "uint256",
          "name": "gameId",
          "type": "uint256"
        },
        {
          "indexed": false,
          "internalType": "string",
          "name": "reason",
          "type": "string"
        }
      ],
      "name": "CallbackFailed",
      "type": "event"
    },
    {
      "anonymous": false,
      "inputs": [
        {
          "indexed": true,
          "internalType": "uint256",
          "name": "requestId",
          "type": "uint256"
        },
        {
          "indexed": true,
          "internalType": "uint256",
          "name": "gameId",
          "type": "uint256"
        }
      ],
      "name": "CallbackSucceeded",
      "type": "event"
    },
    {
      "anonymous": false,
      "inputs": [
        {
          "indexed": true,
          "internalType": "uint256",
          "name": "gameId",
          "type": "uint256"
        },
        {
          "indexed": true,
          "internalType": "address",
          "name": "player2",
          "type": "address"
        }
      ],
      "name": "GameChallenged",
      "type": "event"
    },
    {
      "anonymous": false,
      "inputs": [
        {
          "indexed": true,
          "internalType": "uint256",
          "name": "gameId",
          "type": "uint256"
        },
        {
          "indexed": true,
          "internalType": "address",
          "name": "player1",
          "type": "address"
        },
        {
          "indexed": false,
          "internalType": "uint256",
          "name": "betAmount",
          "type": "uint256"
        }
      ],
      "name": "GameCreated",
      "type": "event"
    },
    {
      "anonymous": false,
      "inputs": [
        {
          "indexed": true,
          "internalType": "uint256",
          "name": "gameId",
          "type": "uint256"
        }
      ],
      "name": "GameReadyForReveal",
      "type": "event"
    },
    {
      "anonymous": false,
      "inputs": [
        {
          "indexed": true,
          "internalType": "uint256",
          "name": "gameId",
          "type": "uint256"
        },
        {
          "indexed": true,
          "internalType": "address",
          "name": "winner",
          "type": "address"
        }
      ],
      "name": "GameRevealed",
      "type": "event"
    },
    {
      "anonymous": false,
      "inputs": [
        {
          "indexed": true,
          "internalType": "address",
          "name": "previousOwner",
          "type": "address"
        },
        {
          "indexed": true,
          "internalType": "address",
          "name": "newOwner",
          "type": "address"
        }
      ],
      "name": "OwnershipTransferred",
      "type": "event"
    },
    {
      "anonymous": false,
      "inputs": [
        {
          "indexed": true,
          "internalType": "uint256",
          "name": "gameId",
          "type": "uint256"
        },
        {
          "indexed": true,
          "internalType": "address",
          "name": "winner",
          "type": "address"
        },
        {
          "indexed": false,
          "internalType": "uint256",
          "name": "amount",
          "type": "uint256"
        }
      ],
      "name": "PrizeClaimed",
      "type": "event"
    },
    {
      "inputs": [
        {
          "internalType": "uint256",
          "name": "requestId",
          "type": "uint256"
        },
        {
          "internalType": "uint32",
          "name": "",
          "type": "uint32"
        }
      ],
      "name": "callbackDecryption",
      "outputs": [],
      "stateMutability": "nonpayable",
      "type": "function"
    },
    {
      "inputs": [
        {
          "internalType": "uint256",
          "name": "_gameId",
          "type": "uint256"
        },
        {
          "internalType": "externalEuint32",
          "name": "_encryptedGuess",
          "type": "bytes32"
        },
        {
          "internalType": "bytes",
          "name": "_proof",
          "type": "bytes"
        }
      ],
      "name": "challengeGame",
      "outputs": [],
      "stateMutability": "payable",
      "type": "function"
    },
    {
      "inputs": [
        {
          "internalType": "uint256",
          "name": "_gameId",
          "type": "uint256"
        }
      ],
      "name": "claimPrize",
      "outputs": [],
      "stateMutability": "nonpayable",
      "type": "function"
    },
    {
      "inputs": [
        {
          "internalType": "externalEuint32",
          "name": "_encryptedChoice",
          "type": "bytes32"
        },
        {
          "internalType": "bytes",
          "name": "inputProof",
          "type": "bytes"
        }
      ],
      "name": "createGame",
      "outputs": [],
      "stateMutability": "payable",
      "type": "function"
    },
    {
      "inputs": [],
      "name": "gameCounter",
      "outputs": [
        {
          "internalType": "uint256",
          "name": "",
          "type": "uint256"
        }
      ],
      "stateMutability": "view",
      "type": "function"
    },
    {
      "inputs": [
        {
          "internalType": "uint256",
          "name": "",
          "type": "uint256"
        }
      ],
      "name": "games",
      "outputs": [
        {
          "internalType": "uint256",
          "name": "gameId",
          "type": "uint256"
        },
        {
          "internalType": "address",
          "name": "player1",
          "type": "address"
        },
        {
          "internalType": "address",
          "name": "player2",
          "type": "address"
        },
        {
          "internalType": "uint256",
          "name": "betAmount",
          "type": "uint256"
        },
        {
          "internalType": "euint32",
          "name": "encryptedChoice",
          "type": "bytes32"
        },
        {
          "internalType": "euint32",
          "name": "encryptedGuess",
          "type": "bytes32"
        },
        {
          "internalType": "enum PlayerVsPlayerGuessingGame.GameStatus",
          "name": "status",
          "type": "uint8"
        },
        {
          "internalType": "address",
          "name": "winner",
          "type": "address"
        },
        {
          "internalType": "bool",
          "name": "isRevealed",
          "type": "bool"
        },
        {
          "internalType": "ebool",
          "name": "encryptedResult",
          "type": "bytes32"
        }
      ],
      "stateMutability": "view",
      "type": "function"
    },
    {
      "inputs": [],
      "name": "getAvailableGames",
      "outputs": [
        {
          "internalType": "uint256[]",
          "name": "gameIds",
          "type": "uint256[]"
        }
      ],
      "stateMutability": "view",
      "type": "function"
    },
    {
      "inputs": [
        {
          "internalType": "uint256",
          "name": "_gameId",
          "type": "uint256"
        }
      ],
      "name": "getGameSummary",
      "outputs": [
        {
          "components": [
            {
              "internalType": "uint256",
              "name": "gameId",
              "type": "uint256"
            },
            {
              "internalType": "address",
              "name": "player1",
              "type": "address"
            },
            {
              "internalType": "address",
              "name": "player2",
              "type": "address"
            },
            {
              "internalType": "enum PlayerVsPlayerGuessingGame.GameStatus",
              "name": "status",
              "type": "uint8"
            },
            {
              "internalType": "uint256",
              "name": "betAmount",
              "type": "uint256"
            },
            {
              "internalType": "uint256",
              "name": "prizePool",
              "type": "uint256"
            },
            {
              "internalType": "address",
              "name": "winner",
              "type": "address"
            },
            {
              "internalType": "bool",
              "name": "isRevealed",
              "type": "bool"
            }
          ],
          "internalType": "struct PlayerVsPlayerGuessingGame.GameSummary",
          "name": "summary",
          "type": "tuple"
        }
      ],
      "stateMutability": "view",
      "type": "function"
    },
    {
      "inputs": [
        {
          "internalType": "uint256",
          "name": "_gameId",
          "type": "uint256"
        }
      ],
      "name": "getRevealedResults",
      "outputs": [
        {
          "internalType": "address",
          "name": "winner",
          "type": "address"
        }
      ],
      "stateMutability": "view",
      "type": "function"
    },
    {
      "inputs": [],
      "name": "getTotalGamesCount",
      "outputs": [
        {
          "internalType": "uint256",
          "name": "",
          "type": "uint256"
        }
      ],
      "stateMutability": "view",
      "type": "function"
    },
    {
      "inputs": [],
      "name": "getWinnerHistory",
      "outputs": [
        {
          "components": [
            {
              "internalType": "uint256",
              "name": "gameId",
              "type": "uint256"
            },
            {
              "internalType": "address",
              "name": "winner",
              "type": "address"
            },
            {
              "internalType": "address",
              "name": "loser",
              "type": "address"
            },
            {
              "internalType": "uint32",
              "name": "winningChoice",
              "type": "uint32"
            },
            {
              "internalType": "uint256",
              "name": "prize",
              "type": "uint256"
            },
            {
              "internalType": "uint256",
              "name": "timestamp",
              "type": "uint256"
            }
          ],
          "internalType": "struct PlayerVsPlayerGuessingGame.WinnerRecord[]",
          "name": "",
          "type": "tuple[]"
        }
      ],
      "stateMutability": "view",
      "type": "function"
    },
    {
      "inputs": [
        {
          "internalType": "uint256",
          "name": "",
          "type": "uint256"
        },
        {
          "internalType": "address",
          "name": "",
          "type": "address"
        }
      ],
      "name": "hasPlayerClaimed",
      "outputs": [
        {
          "internalType": "bool",
          "name": "",
          "type": "bool"
        }
      ],
      "stateMutability": "view",
      "type": "function"
    },
    {
      "inputs": [
        {
          "internalType": "uint256",
          "name": "",
          "type": "uint256"
        }
      ],
      "name": "isDecryptionPending",
      "outputs": [
        {
          "internalType": "bool",
          "name": "",
          "type": "bool"
        }
      ],
      "stateMutability": "view",
      "type": "function"
    },
    {
      "inputs": [
        {
          "internalType": "uint256",
          "name": "",
          "type": "uint256"
        }
      ],
      "name": "lastCallbackError",
      "outputs": [
        {
          "internalType": "string",
          "name": "",
          "type": "string"
        }
      ],
      "stateMutability": "view",
      "type": "function"
    },
    {
      "inputs": [
        {
          "internalType": "uint256",
          "name": "",
          "type": "uint256"
        }
      ],
      "name": "latestRequestId",
      "outputs": [
        {
          "internalType": "uint256",
          "name": "",
          "type": "uint256"
        }
      ],
      "stateMutability": "view",
      "type": "function"
    },
    {
      "inputs": [],
      "name": "owner",
      "outputs": [
        {
          "internalType": "address",
          "name": "",
          "type": "address"
        }
      ],
      "stateMutability": "view",
      "type": "function"
    },
    {
      "inputs": [
        {
          "internalType": "address",
          "name": "newOwner",
          "type": "address"
        }
      ],
      "name": "transferOwnership",
      "outputs": [],
      "stateMutability": "nonpayable",
      "type": "function"
    },
    {
      "inputs": [
        {
          "internalType": "uint256",
          "name": "",
          "type": "uint256"
        }
      ],
      "name": "winnerHistory",
      "outputs": [
        {
          "internalType": "uint256",
          "name": "gameId",
          "type": "uint256"
        },
        {
          "internalType": "address",
          "name": "winner",
          "type": "address"
        },
        {
          "internalType": "address",
          "name": "loser",
          "type": "address"
        },
        {
          "internalType": "uint32",
          "name": "winningChoice",
          "type": "uint32"
        },
        {
          "internalType": "uint256",
          "name": "prize",
          "type": "uint256"
        },
        {
          "internalType": "uint256",
          "name": "timestamp",
          "type": "uint256"
        }
      ],
      "stateMutability": "view",
      "type": "function"
    }
  ],
  "bytecode": "0x608060405234801561000f575f80fd5b5061018a6100ae604080516080810182525f808252602082018190529181018290526060810191909152506040805160808101825273687820221192c5b662b25367f70076a37bc79b6c815273848b0066793bcc60346da1f49049357399b8d5956020820152731364cbbf2cdf5032c47d8226a6f6fbd2afcdacac9181019190915273bc91f3dad1a5f19f8390c400196e58073b6a0bc4606082015290565b80517fed8d60e34876f751cc8b014c560745351147d9de11b9347c854e881b128ea60080546001600160a01b03199081166001600160a01b039384161790915560208301517fed8d60e34876f751cc8b014c560745351147d9de11b9347c854e881b128ea6018054831691841691909117905560408301517fed8d60e34876f751cc8b014c560745351147d9de11b9347c854e881b128ea6028054831691841691909117905560608301517fed8d60e34876f751cc8b014c560745351147d9de11b9347c854e881b128ea6038054909216921691909117905550565b7f5ea69329017273582817d320489fbd94f775580e90c092699ca6f3d12fdf7d00805473a02cda4ca3a71d7c46997716f4283aa851c288126001600160a01b0319918216179091555f8054339216821781556040517f8be0079c531659141344cd1fd0a4f28419497f9722a3daafe3b4186f6b6457e0908290a3611ba9806102115f395ff3fe608060405260043610610123575f3560e01c806375964b55116100a1578063af8ada5d11610071578063d709815411610057578063d709815414610400578063f2fde38b1461041f578063fc0352b51461043e575f80fd5b8063af8ada5d146103b5578063d0ece09c146103e1575f80fd5b806375964b551461030057806381159cc61461035e5780638b65710a146103725780638da5cb5b14610385575f80fd5b80631d7a0964116100f65780633213c9a4116100dc5780633213c9a4146102905780633580404b146102be57806340a9eeff146102df575f80fd5b80631d7a0964146102685780632e0be39a1461027b575f80fd5b806304c55b7b146101275780630c7d7ab514610148578063117a5b90146101865780631a318be51461021f575b5f80fd5b348015610132575f80fd5b506101466101413660046116cd565b61046a565b005b348015610153575f80fd5b50610173610162366004611703565b60066020525f908152604090205481565b6040519081526020015b60405180910390f35b348015610191575f80fd5b506102096101a0366004611703565b600260208190525f91825260409091208054600182015492820154600383015460048401546005850154600686015460079096015494966001600160a01b03908116969481169593949293919260ff80821693610100830490931692600160a81b90920416908a565b60405161017d9a99989796959493929190611742565b34801561022a575f80fd5b506102586102393660046117c3565b600860209081525f928352604080842090915290825290205460ff1681565b604051901515815260200161017d565b610146610276366004611832565b6105c7565b348015610286575f80fd5b5061017360015481565b34801561029b575f80fd5b506102586102aa366004611703565b60056020525f908152604090205460ff1681565b3480156102c9575f80fd5b506102d26106fa565b60405161017d919061187a565b3480156102ea575f80fd5b506102f36107a4565b60405161017d9190611903565b34801561030b575f80fd5b5061031f61031a366004611703565b6108aa565b604080519687526001600160a01b039586166020880152939094169285019290925263ffffffff166060840152608083015260a082015260c00161017d565b348015610369575f80fd5b50600154610173565b610146610380366004611946565b610905565b348015610390575f80fd5b505f546001600160a01b03165b6040516001600160a01b03909116815260200161017d565b3480156103c0575f80fd5b506103d46103cf366004611703565b610ada565b60405161017d9190611995565b3480156103ec575f80fd5b5061039d6103fb366004611703565b610c22565b34801561040b575f80fd5b5061014661041a366004611703565b610cf4565b34801561042a575f80fd5b50610146610439366004611a0a565b610ee1565b348015610449575f80fd5b5061045d610458366004611703565b61101e565b60405161017d9190611a66565b5f8281526003602090815260408083205480845260028352818420600590935292205460ff166104ed5760405162461bcd60e51b815260206004820152602360248201527f4e6f2064656372797074696f6e2070656e64696e6720666f7220746869732067604482015262616d6560e81b60648201526084015b60405180910390fd5b6001600682015460ff1660038111156105085761050861171a565b146105555760405162461bcd60e51b815260206004820181905260248201527f47616d65206d75737420626520696e206368616c6c656e67656420737461746560448201526064016104e4565b604051829085907fe70d96874109e9085a11f19ac5cfadb34b8c6179e37aa5c6ee87e841b5d6e747905f90a3604051829085907f9e85ec618790be49838f9f60634ccb2e96e560a1686d28a81e29510226819f33905f90a3505f908152600560205260409020805460ff191690555050565b5f34116106205760405162461bcd60e51b815260206004820152602160248201527f42657420616d6f756e74206d7573742062652067726561746572207468616e206044820152600360fc1b60648201526084016104e4565b600180545f918261063083611a8c565b909155505f818152600260209081526040918290208381556001810180546001600160a01b0319163317905534600382015560068101805460ff191690558251601f87018390048302810183019093528583529293506106ab91879187908790819084018382808284375f920191909152506110b592505050565b600482018190556106bb906110cb565b50604051348152339083907f7dfb67e9ff596fca4da65c7eedb128cd1aac553af54b3c0cb733625a2480d8bd9060200160405180910390a35050505050565b60606004805480602002602001604051908101604052809291908181526020015f905b8282101561079b575f8481526020908190206040805160c08101825260058602909201805483526001808201546001600160a01b0390811685870152600283015490811693850193909352600160a01b90920463ffffffff166060840152600381015460808401526004015460a0830152908352909201910161071d565b50505050905090565b60605f805b6001548110156107f3575f8181526002602052604081206006015460ff1660038111156107d8576107d861171a565b036107eb57816107e781611a8c565b9250505b6001016107a9565b508067ffffffffffffffff81111561080d5761080d611aa4565b604051908082528060200260200182016040528015610836578160200160208202803683370190505b5091505f805b6001548110156108a4575f8181526002602052604081206006015460ff16600381111561086b5761086b61171a565b0361089c578084838151811061088357610883611ab8565b60209081029190910101528161089881611a8c565b9250505b60010161083c565b50505090565b600481815481106108b9575f80fd5b5f918252602090912060059091020180546001820154600283015460038401546004909401549294506001600160a01b039182169391811692600160a01b90910463ffffffff16919086565b5f84815260026020526040812090600682015460ff16600381111561092c5761092c61171a565b146109795760405162461bcd60e51b815260206004820181905260248201527f47616d65206e6f7420617661696c61626c6520666f72206368616c6c656e676560448201526064016104e4565b6001810154336001600160a01b03909116036109d75760405162461bcd60e51b815260206004820152601e60248201527f43616e6e6f74206368616c6c656e676520796f7572206f776e2067616d65000060448201526064016104e4565b80600301543414610a2a5760405162461bcd60e51b815260206004820152601960248201527f4d757374206d61746368207468652062657420616d6f756e740000000000000060448201526064016104e4565b610a698484848080601f0160208091040260200160405190810160405280939291908181526020018383808284375f920191909152506110b592505050565b60058201819055610a79906110cb565b506002810180546001600160a01b0319163390811790915560068201805460ff1916600117905560405186907f449cceef0b9f4e4e5a227335b5857d048ad0201bf60595df9d06f0755d98a714905f90a3610ad3856110da565b5050505050565b60408051610100810182525f80825260208201819052918101829052606081018290526080810182905260a0810182905260c0810182905260e08101919091526001548210610b6b5760405162461bcd60e51b815260206004820152601360248201527f47616d6520646f6573206e6f742065786973740000000000000000000000000060448201526064016104e4565b5f8281526002602081815260409283902083516101008101855286815260018201546001600160a01b039081169382019390935292810154909116928201929092526006820154606082019060ff166003811115610bcb57610bcb61171a565b81526020018260030154815260200182600301546002610beb9190611acc565b81526006909201546001600160a01b03610100820416602084015260ff600160a81b90910416151560409092019190915292915050565b5f6001548210610c745760405162461bcd60e51b815260206004820152601360248201527f47616d6520646f6573206e6f742065786973740000000000000000000000000060448201526064016104e4565b5f8281526002602052604090206006810154600160a81b900460ff16610cdc5760405162461bcd60e51b815260206004820152601d60248201527f47616d6520726573756c7473206e6f742072657665616c65642079657400000060448201526064016104e4565b6006015461010090046001600160a01b031692915050565b5f81815260026020819052604090912090600682015460ff166003811115610d1e57610d1e61171a565b14610d6b5760405162461bcd60e51b815260206004820152601d60248201527f47616d6520726573756c7473206e6f742072657665616c65642079657400000060448201526064016104e4565b600681015461010090046001600160a01b03163314610dcc5760405162461bcd60e51b815260206004820152601b60248201527f4f6e6c792077696e6e65722063616e20636c61696d207072697a65000000000060448201526064016104e4565b5f82815260086020908152604080832033845290915290205460ff1615610e355760405162461bcd60e51b815260206004820152601560248201527f5072697a6520616c726561647920636c61696d6564000000000000000000000060448201526064016104e4565b5f82815260086020908152604080832033845290915281208054600160ff19918216179091556006830180546003921682179055820154610e77906002611acc565b604051909150339082156108fc029083905f818181858888f19350505050158015610ea4573d5f803e3d5ffd5b50604051818152339084907f4aa95f981a8337cb337de335b965507da0879c3b49f799d20058e913f5ad2c269060200160405180910390a3505050565b33610ef35f546001600160a01b031690565b6001600160a01b031614610f495760405162461bcd60e51b815260206004820181905260248201527f4f776e61626c653a2063616c6c6572206973206e6f7420746865206f776e657260448201526064016104e4565b6001600160a01b038116610fc55760405162461bcd60e51b815260206004820152602660248201527f4f776e61626c653a206e6577206f776e657220697320746865207a65726f206160448201527f646472657373000000000000000000000000000000000000000000000000000060648201526084016104e4565b5f80546040516001600160a01b03808516939216917f8be0079c531659141344cd1fd0a4f28419497f9722a3daafe3b4186f6b6457e091a35f80546001600160a01b0319166001600160a01b0392909216919091179055565b60076020525f90815260409020805461103690611ae3565b80601f016020809104026020016040519081016040528092919081815260200182805461106290611ae3565b80156110ad5780601f10611084576101008083540402835291602001916110ad565b820191905f5260205f20905b81548152906001019060200180831161109057829003601f168201915b505050505081565b5f6110c28383600461117f565b90505b92915050565b5f6110d6823061129f565b5090565b5f8181526002602052604090206001600682015460ff1660038111156111025761110261171a565b1461114f5760405162461bcd60e51b815260206004820152601d60248201527f47616d65206d757374206265206368616c6c656e67656420666972737400000060448201526064016104e4565b61116181600401548260050154611328565b60078201819055611171906110cb565b5061117b82611356565b5050565b7fed8d60e34876f751cc8b014c560745351147d9de11b9347c854e881b128ea6015460405163196d0b9b60e01b81525f917fed8d60e34876f751cc8b014c560745351147d9de11b9347c854e881b128ea600916001600160a01b039091169063196d0b9b906111f8908890339089908990600401611b2b565b6020604051808303815f875af1158015611214573d5f803e3d5ffd5b505050506040513d601f19601f820116820180604052508101906112389190611b6a565b8154604051630f8e573b60e21b8152600481018390523360248201529193506001600160a01b031690633e395cec906044015f604051808303815f87803b158015611281575f80fd5b505af1158015611293573d5f803e3d5ffd5b50505050509392505050565b5f7fed8d60e34876f751cc8b014c560745351147d9de11b9347c854e881b128ea6008054604051635ca4b5b160e11b8152600481018690526001600160a01b03858116602483015292935091169063b9496b62906044015f604051808303815f87803b15801561130d575f80fd5b505af115801561131f573d5f803e3d5ffd5b50505050505050565b5f8261133a576113375f61151e565b92505b8161134b576113485f61151e565b91505b6110c283835f611530565b5f8181526002602081905260408220600681018054828401547fffffffffffffffffffffff0000000000000000000000000000000000000000009091166101006001600160a01b0392831681029190911790941791829055600180840154939590949093920481169116146113d85760018301546001600160a01b03166113e7565b60028301546001600160a01b03165b6040805160c08101825286815260068601546001600160a01b03610100909104811660208301528316918101919091525f606082015260038501549192506004916080820190611438906002611acc565b8152426020918201528254600181810185555f94855282852084516005909302019182559183015191810180546001600160a01b039384166001600160a01b0319909116179055604080840151600283018054606087015163ffffffff16600160a01b027fffffffffffffffff000000000000000000000000000000000000000000000000909116928616929092179190911790556080840151600383015560a09093015160049091015560068601549151610100909204169186917fca89dc79ca69ffb087e833ce20114ee29dc90b746538266055b11d9b008efe189190a350505050565b5f6110c58263ffffffff166004611610565b5f8082156115435750600160f81b611546565b505f5b5f7fed8d60e34876f751cc8b014c560745351147d9de11b9347c854e881b128ea600600181015460405163f77f3f1d60e01b815260048101899052602481018890527fff00000000000000000000000000000000000000000000000000000000000000851660448201529192506001600160a01b03169063f77f3f1d906064016020604051808303815f875af11580156115e2573d5f803e3d5ffd5b505050506040513d601f19601f820116820180604052508101906116069190611b6a565b9695505050505050565b7fed8d60e34876f751cc8b014c560745351147d9de11b9347c854e881b128ea60154604051639cd07acb60e01b81525f917fed8d60e34876f751cc8b014c560745351147d9de11b9347c854e881b128ea600916001600160a01b0390911690639cd07acb906116859087908790600401611b81565b6020604051808303815f875af11580156116a1573d5f803e3d5ffd5b505050506040513d601f19601f820116820180604052508101906116c59190611b6a565b949350505050565b5f80604083850312156116de575f80fd5b82359150602083013563ffffffff811681146116f8575f80fd5b809150509250929050565b5f60208284031215611713575f80fd5b5035919050565b634e487b7160e01b5f52602160045260245ffd5b6004811061173e5761173e61171a565b9052565b5f610140820190508b82526001600160a01b03808c166020840152808b1660408401528960608401528860808401528760a084015261178460c084018861172e565b9490941660e082015291151561010083015261012090910152979650505050505050565b80356001600160a01b03811681146117be575f80fd5b919050565b5f80604083850312156117d4575f80fd5b823591506117e4602084016117a8565b90509250929050565b5f8083601f8401126117fd575f80fd5b50813567ffffffffffffffff811115611814575f80fd5b60208301915083602082850101111561182b575f80fd5b9250929050565b5f805f60408486031215611844575f80fd5b83359250602084013567ffffffffffffffff811115611861575f80fd5b61186d868287016117ed565b9497909650939450505050565b602080825282518282018190525f919060409081850190868401855b828110156118f657815180518552868101516001600160a01b039081168887015286820151168686015260608082015163ffffffff16908601526080808201519086015260a0908101519085015260c09093019290850190600101611896565b5091979650505050505050565b602080825282518282018190525f9190848201906040850190845b8181101561193a5783518352928401929184019160010161191e565b50909695505050505050565b5f805f8060608587031215611959575f80fd5b8435935060208501359250604085013567ffffffffffffffff81111561197d575f80fd5b611989878288016117ed565b95989497509550505050565b5f610100820190508251825260208301516001600160a01b038082166020850152806040860151166040850152606085015191506119d6606085018361172e565b6080850151608085015260a085015160a08501528060c08601511660c0850152505060e0830151151560e083015292915050565b5f60208284031215611a1a575f80fd5b6110c2826117a8565b5f81518084525f5b81811015611a4757602081850181015186830182015201611a2b565b505f602082860101526020601f19601f83011685010191505092915050565b602081525f6110c26020830184611a23565b634e487b7160e01b5f52601160045260245ffd5b5f60018201611a9d57611a9d611a78565b5060010190565b634e487b7160e01b5f52604160045260245ffd5b634e487b7160e01b5f52603260045260245ffd5b80820281158282048414176110c5576110c5611a78565b600181811c90821680611af757607f821691505b602082108103611b1557634e487b7160e01b5f52602260045260245ffd5b50919050565b6054811061173e5761173e61171a565b8481526001600160a01b0384166020820152608060408201525f611b526080830185611a23565b9050611b616060830184611b1b565b95945050505050565b5f60208284031215611b7a575f80fd5b5051919050565b82815260408101611b956020830184611b1b565b939250505056fea164736f6c6343000818000a",
  "linkReferences": {},
  "deployedLinkReferences": {}
}